:100000006F000077130000001300000013000000D1
:100010001300000013000000130000001300000094
:100020001300000013000000130000001300000084
:08003000130000007300100032
:100038000000000000000000080300000C0300009E
:1000480000000000B60600000000000000000000EC
:10005800B8060000BA06000000000000000000001A
:10006800BC06000000000000BE0600000000000002
:10007800C0060000C2060000C4060000C606000054
:10008800C8060000CA060000CC060000CE06000024
:10009800D0060000D2060000D4060000D6060000F4
:1000A800D8060000DA060000DC060000DE060000C4
:1000B800E0060000E2060000E4060000E606000094
:1000C800E8060000EA060000EC060000EE06000064
:1000D800F0060000F2060000F4060000F606000034
:1000E800F8060000FA060000FC060000FE06000004
:1000F80000070000020700000407000006070000D0
:10010800080700000A0700000C0700000E0700009F
:10011800100700001207000014070000160700006F
:10012800180700001A0700001C0700001E0700003F
:10013800200700002207000024070000260700000F
:10014800280700002A0700002C0700002E070000DF
:1001580030070000320700003407000036070000AF
:10016800380700003A0700003C0700003E0700007F
:10017800400700004207000044070000460700004F
:10018800480700004A0700004C0700004E0700001F
:1001980050070000520700005407000056070000EF
:1001A800580700005A0700005C0700005E070000BF
:1001B800600700006207000064070000660700008F
:1001C800680700006A0700006C0700006E0700005F
:1001D8000000000000000000000000000000000017
:1001E8000000000000000000000000000000000007
:0801F8000000000000000000FF
:10020000397101436EC619A0397141536AC866CA73
:1002100062CC5ECE19A0397101535AD056D252D455
:100220004ED64AD826DA22DC06DE330161408282CD
:1002300041114AC026C222C406C68282B24D410183
:10024000024D924C224CB24B4101024B924A224A3F
:10025000B2494101024992442244B24041018280A4
:100260003D432A876373C3029377F700BDEFADE583
:10027000937606FF3D8ABA960CC34CC30CC74CC795
:100280004107E36BD7FE11E28280B306C3408A06C2
:100290009702000096966780A6002307B700A30682
:1002A000B7002306B700A305B7002305B700A304D2
:1002B000B7002304B700A303B7002303B700A302CA
:1002C000B7002302B700A301B7002301B700A300C2
:1002D000B7002300B700828093F5F50F9396850051
:1002E000D58D93960501D58D61B79396270097021A
:1002F000000096968682E78086FA9680C1171D8F49
:100300003E96E374C3F8A5B77300203001A081477F
:100310001397070141836314E60005458280330784
:10032000F5008507B386F500182383C6F6FFE38141
:10033000E6FE01458280EFF21FEE37050200011153
:1003400085451305050402C202C402C602C802CADA
:1003500002CC02CE292785455145DD25B71901403C
:1003600091470D49E1444C00138509807C824AC4C1
:1003700026C64929A14711444C00138509807C8277
:1003800022C6492185474C00371501407C824AC46A
:1003900026C68D2989474C00371501407C8222C62C
:1003A0009521F16737440040938707203EC80C0829
:1003B000B7070C00130504403ECC02CA231E0100FF
:1003C000752D130504408545EF00E0763724004085
:1003D0000C08130504805D25854513050480EF0096
:1003E000807505619DB5EFF23FE20945E1291924C9
:1003F000EF006077716513050520EF006079B7079E
:10040000002083A5070B37250000130585DFEF00CB
:100410005003E526AA8537250000130585E0EF0087
:10042000500237250000130585E1EF00D012370494
:100430000020B72400400137130AC002130B040048
:100440009384048093894183138701821C236373FF
:10045000FA041306D0029385418313050400453D39
:1004600023AEA180B7290000372900002DC537250C
:1004700000001305C5E2EF00100E9305040013857C
:10048000C9E3EF00007C938541831305C9E4EF00C5
:10049000407B01A093861700DA978C2337490040F0
:1004A0001305094014A3130909404D2593050008BD
:1004B0004A856D2565DD930500022685452565DDA8
:1004C0002685492D138781811C2393861700CE979B
:1004D00014A388A395BF372500001305C5E5EF00D9
:1004E0009007930504001385C9E3EF008075938599
:1004F00041831305C9E4EF00C07461BFB717024020
:100500009843B706FFF841111367170098C3D84303
:1005100037060200758FD8C39843B706F7FEFD165D
:10052000758F98C39843B706FCFFFD16758F98C367
:10053000D843B70681FFFD16758FD8C39843B70619
:1005400000ECFD16758F98C33707FF0098C723A6E8
:10055000070202C402C69843C166558F98C3B716F6
:10056000024011679C42F18F3EC6A24785073EC4F8
:10057000B24781E7A247E397E7FEB71702409C43E3
:100580001397E7006356070685473EC632478547FF
:10059000631EF704B7170240D843B706C1FFFD1624
:1005A000D8C3D843D8C3D84313670740D8C3D84368
:1005B000758FD8C3D843C166558FD8C39843B70643
:1005C0000001558F98C3984393166700E3DD06FE3C
:1005D000D843B7160240719BD8C3D843136727008E
:1005E000D8C32147DC42B18BE39EE7FE4101828004
:1005F00002C669BF371602405C42370700209146A9
:10060000B18B1307070B6385D700A1466388D70218
:10061000B7177A00938707201CC3B7170240DC4343
:10062000918393F6F700B707002093870703B697E7
:1006300094231C43B3D7D7001CC38280544250423A
:10064000C167C982BD8A7D8E9387260085CABD4653
:100650006389D702C1466389D702C5458146639342
:10066000B700C1470DE63746024003260680418A9F
:1006700015C637167A00130606202DA08146C947F5
:10068000D5B78546B547F9BF8146BD47E1BF3716A7
:10069000024050429315E600E3DD05FC37163D00AD
:1006A00013060690B387C7021CC3A5DA1C438583D3
:1006B000A5B701A001A001A001A001A001A001A077
:1006C00001A001A001A001A001A001A001A001A022
:1006D00001A001A001A001A001A001A001A001A012
:1006E00001A001A001A001A001A001A001A001A002
:1006F00001A001A001A001A001A001A001A001A0F2
:1007000001A001A001A001A001A001A001A001A0E1
:1007100001A001A001A001A001A001A001A001A0D1
:1007200001A001A001A001A001A001A001A001A0C1
:1007300001A001A001A001A001A001A001A001A0B1
:1007400001A001A001A001A001A001A001A001A0A1
:1007500001A001A001A001A001A001A001A001A091
:1007600001A001A001A001A001A001A001A001A081
:1007700097010020938101141781002013018188C3
:100780001715000013054578970500209385858788
:100790001386818163FAC5008322050023A05500DA
:1007A00011059105E3EAC5FE138581819385818654
:1007B0006377B500232005001105E36DB5FEFD420A
:1007C000739002BCAD4273904280B7620000938286
:1007D000820873A00230970200009382228693E27F
:1007E000320073905230EFF07FD197020000938275
:1007F000C2BF7390123473002030B7F7FF1F03A5F8
:10080000477082809C4513F7070113F8F70001C772
:10081000D8413368E8008E2113F7F50F39C318412A
:100820008146854E3D4F930F800293028004214EF6
:100830003396DE00B3F8C5006311160393982600C3
:1008400033131F011343F3FF3377E300B318180189
:1008500033E7E800639FF70550C98506E39AC6FDB4
:1008600018C11307F00F6375B70454412146854E34
:100870003D4F930F800293028004414EB398CE0007
:1008800033F715016392E80213172600011733139B
:10089000EF001343F3FFB376D3003317E800D98E8C
:1008A000639DF701232A15010506E319C6FD54C10E
:1008B0008280E39457FA10C94DB7E39757FE232877
:1008C0001501DDB723A2A1828280371702405C4365
:1008D0009146B18B6385D700A1466382D706B717CF
:1008E0007A00938707201CC1371602405C42370705
:1008F0000020130707049183BD8BBA9794231C41F2
:10090000B3D7D7005CC15442A1829D8ABA96942283
:10091000B3D6D70014C55442AD829D8A36971823AA
:10092000B3D7E7005CC55842398393763700138705
:10093000418036971823B3D7E7021CC982805C43F5
:100940005843C166C983758FB7F6FF1F83A6C6706B
:10095000BD8B89071396160163480600C5460146FC
:100960006392D702C94739A88946638FD702BD462B
:10097000638ED702C146638ED702C5460146639394
:10098000D700C1471DEF3747024003270780418B3F
:1009900005C737177A0013070720B307F7021CC1F2
:1009A00021D61C41858381B701466DBF0546B547F9
:1009B000D1BF0146BD47F9B737173D001307079070
:1009C000E9BFB7150240D8559316F700D85563DF35
:1009D000060411833D8B9306170037177A0013071F
:1009E00007203357D70218C1D455A182BD8A8DE2A2
:1009F00095463307D702058318C137170240585769
:100A000014413D8B050733D7E60218C1184171B771
:100A100085456394B600E546E9BFBD456396B600DB
:100A2000D1463387E602C9BF8906E5BF3D8B9306F1
:100A3000170037177A00130707203357D702F1B78B
:100A400099C5371702401C4F5D8D08CF8280B717BC
:100A50000240984F1345F5FF798D88CF828099C564
:100A6000371702405C4F5D8D48CF8280B717024038
:100A7000D84F1345F5FF798DC8CF8280EFF24FFB39
:100A80001629F577FD17F58FF621DA257971D58FBF
:100A90001EA95625FD779387379FF58FD6212A8487
:100AA0002EC6D58F9625D58FB625D58F5EA55E2906
:100AB000C207C18393F7F7CFD98F5EA96808313594
:100AC000B747014093870780B245631AF404A257E1
:100AD00056246547B387E702C206C186984163D2B0
:100AE0000604060752244206B3D7E702130740065E
:100AF0004186B3D6E702B3F7E702920663550602D2
:100B00008E0793872703B3D7E70213F77700B367FE
:100B1000D700C207C1831EA445616FF0AFF392579F
:100B200045BF0A07C1B7920793872703B3D7E702E8
:100B3000BD8BD58FF9BF91C55E250967D98F5EA59D
:100B400082805A25F977FD17F98FD5BF93F5F51FE8
:100B50004EA182804A211375F51F82800A216D8D76
:100B60003335A0008280B707002083A7070B371713
:100B70007A0013070720B3D7E70293F7F70F23850F
:100B8000F1821307803EB387E7022394F1828280CB
:100B9000EFF20FEA2A8411650111854511054D35E3
:100BA000930700207C82371501408D473EC44C00DE
:100BB000E147130505803EC6B13122C837440140E4
:100BC000B70708000C08130504803ECC02CA231E98
:100BD00001006D35854513050480B13F05616FF057
:100BE0006FE7EFF24FE3B7440140AE893289014429
:100BF00093840480634524014A856FF00FE59305D3
:100C000000042685A13F65DDB38789008385070041
:100C100026850504C205C181153FE9BF1387818080
:100C20001C43938681863E95636BD500B786002072
:100C30009386068063E5A60008C33E858280FD5743
:100C4000EDBF39713EDA2ED232D436D63AD842DCF4
:100C500046DE9387C18022CC804326CA06CEAA8472
:100C600009C41C4C99E32285ED290C4454102686B6
:100C7000228536C6EF007012F2406244D2442161F0
:100C80008280011126CA4AC806CE22CC4EC652C462
:100C9000AA842E8901C51C4D91E3E1219C4C80441E
:100CA00099E326857D29971700009387271E631BEC
:100CB000F402C0405E24A18BB1C71C48A1C7FD59F6
:100CC000294A1C4483450900FD17B1E91CC463DDB2
:100CD00007062286A94526856120FD576308F5028F
:100CE000294535A0971700009387471C6314F4002B
:100CF0008044C9B79717000093874717E31CF4FA9D
:100D0000C0444DBFA2852685112A55D97D55F24094
:100D10006244D2444249B249224A056182801CC4DD
:100D2000050963D70700184C63CAE70063884501CB
:100D30001C401387170018C08CA361B72286268534
:100D40000520E31035F9D9B71C401387170018C0E8
:100D5000294798A371B79387C180AA85884315B79F
:100D6000011122CC26CA4AC806CE4EC6AA842E89B4
:100D7000328401C51C4D91E3ED269717000093873F
:100D8000E7106317F406C0401C4C1CC45E24A18B02
:100D9000C1C31C48B5CF1C4808409379F90F13799B
:100DA000F90F1D8D5C486346F500A2852685692CE8
:100DB00025E51C440505FD171CC41C4013871700BE
:100DC00018C0238037015C486388A7005E24858BA8
:100DD00081CBA9476316F900A2852685B5240DEDC0
:100DE000F24062444A85D2444249B2490561828058
:100DF000971700009387870B6314F400804469B74A
:100E00009717000093878706E310F4F8C044ADBF3E
:100E1000A2852685212041D17D59D9B741119387DB
:100E2000C18026C2844322C44AC006C62A892E84B1
:100E300089C49C4C99E326852D269717000093873B
:100E4000E704631BF402C0400317C40093170701B3
:100E5000C18393F68700ADEA93F6070195EEA547A7
:100E60002320F900136707045AA47D55B240224499
:100E7000924402494101828097170000938707033B
:100E80006314F4008044C9B797170000938707FEE6
:100E9000E31CF4FAC0444DBF918B9DC34C5889C9E3
:100EA000930744046384F5004A853123232A04020E
:100EB0005E242322040093F7B7FD5EA41C481CC0E7
:100EC0005E2493E787005EA41C4899EB5E24130719
:100ED000002093F707286385E700A2854A85A121B2
:100EE0005E2413F717001DC35C4823240400B307D6
:100EF000F0401CCC1C480145B5FB8317C40013F718
:100F000007082DD793E707045EA485B7898B0147AF
:100F100091E3584818C4F9BFDE25011122CC26CA36
:100F200006CE4AC84EC613F78700AA842E8479EBF2
:100F3000D841634DE000B841634AE0000145F2400A
:100F40006244D2444249B2490561828058547DD7F7
:100F500003A904009396370123A0040063DB06066F
:100F600070485E24918B99C75C401D8E5C5899C374
:100F70003C401D8E5C540C50814626858297FD575F
:100F80005A24631DF5009440F54763E8D706B70778
:100F900040208507B3D7D700858BA5C31C482322E3
:100FA00004001CC09317370163D80700FD57631472
:100FB000F5009C4091E368C84C5823A02401BDDD96
:100FC000930744046384F5002685F526232A04024A
:100FD000B5B70C500146854626850297FD572A86EF
:100FE000E311F5F89C40B5DF75476385E700594785
:100FF0006393E70423A0240191B7136707045AA45D
:101000007D5535BF83A90501E38A09F203A90500CF
:101010008D8B23A0350133093941014791E3D8492C
:1010200018C4E35D20F11C540C50CA864E862685F8
:1010300082976347A0005E2493E707045EA4C9B7C4
:10104000AA993309A940F1BF9C49B9CF011122CC1B
:1010500006CE2A8411C51C4D81E72EC61922B24541
:1010600097170000938787E2639BF5004C408397B6
:10107000C50095C722856244F240056171BD97178E
:1010800000009387A7E26394F5000C44CDB797174F
:1010900000009387A7DDE39CF5FC4C44C9BFF240F8
:1010A000624401450561828001458280411122C46C
:1010B00006C62A844EA572A523200500232205001A
:1010C000232405002322050623280500232A0500E2
:1010D000232C0500214681451305C505EFF04F98E7
:1010E00097170000938747B15CD09717000093874C
:1010F00067B31CD497170000938747B75CD4971742
:1011000000009387A7B900D01CD8B2402244410107
:10111000828097050000938565F3A9A2411126C23C
:10112000130680069384F5FFB384C4024AC02E8957
:1011300022C406C6938544071D262A8401CD232098
:10114000050023222501310508C413868406814544
:10115000EFF00F912285B2402244924402494101AE
:1011600082801C4DADE3411106C622C497070000E2
:10117000938767FA1CD5938701819C432324050438
:1011800023260504232805046314F50085471CCD98
:101190002A841D2848C02285052808C422852D20C0
:1011A00048C4484001469145113708440546A545C5
:1011B000F53D48440946C945D53D85471CCCB2405C
:1011C000224441018280828041119387018126C29D
:1011D00084434AC006C69C4C22C42A8999E32685CA
:1011E0004937938484048044DC40FD1763D60700AC
:1011F0009C40B9CF8440C5BF0317C40039E7C1770D
:10120000850723220406232004002322040023242C
:1012100004005CC423280400232A0400232C0400B7
:10122000214681451305C405EFF08F83232A04026C
:10123000232C040223240404232604042285B24020
:10124000224492440249410182801304840671BF02
:1012500091454A85E13588C051FDB1472320F90009
:101260000144E9BF797122D44AD052CC56CA5AC837
:101270005EC606D626D24ECE2A8AAE8A13048504CE
:101280000149054BFD5B09ECB25022544A8592544A
:101290000259F249624AD24A424BB24B45618280BE
:1012A000044483294400FD1963D409000040E1BFD0
:1012B000DE24637BFB008397E40063877701A685C8
:1012C0005285829A3369A90093848406E9BF197113
:1012D000A6DAAE848395E500A2DC86DE328463DB89
:1012E0000500DE2423A0060093F7070885E793078F
:1012F00000401DA0300836C6EF00D01FB246E342C2
:1013000005FE7247BD67F98F7977BA9793B71700D3
:101310009CC2F1BF930700041CC0F6506654D6541B
:10132000014509618280DE25011122CC06CE26CA44
:101330004AC8898B2E8489CF930774041CC01CC8AB
:1013400085475CC8F2406244D244424905618280CC
:1013500074003000AA84A53FA2452A89268501226F
:1013600019E98317C40013F7072069FFF19B93E77E
:1013700027005EA4D1B7970700009387C7D99CD4F4
:101380005E2408C008C893E707085EA4A2475CC8AB
:10139000B24781CF8315E4002685EF00501811C5B0
:1013A0005E24F19B93E717005EA45E243369F90085
:1013B0002316240141BFDDC183A7C5FF411122C40B
:1013C00006C626C21384C5FF63D307003E94AA84D1
:1013D000EF00B01B9387C1829C4381EF232204005E
:1013E00023A681822244B2402685924441016F00A7
:1013F000F019637EF40014403307D4006396E700CD
:101400009843DC43369718C05CC0D9BFBA87D8432D
:1014100019C3E37DE4FE94433386D700631F86003F
:101420001040B29694C33386D700E31DC7FA104329
:101430005843B29694C3D8C375B76375C400B14717
:101440009CC04DB71040B306C4006316D7001443C8
:101450005843B29614C058C0C0C369B78280011106
:1014600026CA93843500F19806CE22CC4AC84EC6CF
:10147000A104B14763F3F404B14463E2B4042A89DC
:10148000EF00B0109387C18298433A8439E0938784
:1014900001839C4391E781454A85052F23A8A182BA
:1014A000A6854A851D27FD5963193507B1472320B5
:1014B000F9004A85EF00900D29A0E3D004FCB14764
:1014C0001CC10145F2406244D2444249B24905611F
:1014D00082801C40858F63CF0702AD4663F6F6001D
:1014E0001CC03E9404C031A05C406313870223A655
:1014F000F1824A85EF0090091305B4009307440078
:1015000061993307F5405DDF3A94898F1CC05DBF58
:101510005CC3C5B72287404095BF1304350071985E
:10152000E30285FCB305A4404A854525E31C35FB51
:10153000B5BF1C46FD171CC663DA0700184E63C50D
:10154000E700A9476394F5006FF09F811C422E8548
:101550001387170018C28CA38280011122CC26CADF
:101560004AC84EC652C406CE2A89AE893284B30414
:10157000D6007D5A63149400014501A80C204E86C4
:101580004A85453F0504E31745FFF2406244D244D3
:101590004249B249224A05618280357122CD26CB6B
:1015A0004AC94EC706CF52C556C35AC1DEDEE2DC79
:1015B000E6DAAA89AE843289368401C51C4D91E3EE
:1015C0004D36971700009387678C6397F40C83A4BC
:1015D0004900DE24A18BFDC39C48EDC393070002A4
:1015E000A304F1029307000302D22305F10222C6ED
:1015F000930B5002971A0000938A4A8D054C294B91
:101600004A841C2099C3639E770DB30C2441638DDB
:101610000C00E6864A86A6854E858137FD57630F06
:10162000F51C9256E69636D21C206389071CFD579E
:101630001309140002C802CE3ECA02CCA309010459
:1016400082D48345090015465685252713041900C1
:10165000C24751E913F7070109C713070002A3099D
:10166000E10413F7870009C71307B002A309E104D7
:10167000834609001307A002638FE606F2474A84F7
:1016800081462546182093051400130707FD63774C
:10169000E60AB5CA3ECE85A8971700009387078152
:1016A0006395F40083A489002DB797070000938702
:1016B000E77BE390F4F283A4C90021BFA6854E85A1
:1016C000EFF0CFF501DD7D55FA406A44DA444A492E
:1016D000BA492A4A9A4A0A4BF65B665CD65C0D61A7
:1016E0008280050439BF330555413315AC00C98FDD
:1016F0003EC82289B9B7324793064700184336C619
:10170000634707023ACE18209307E002631DF704EF
:1017100018309307A002631BF702B247090413872E
:1017200047009C433AC663C107023ECA2DA833074F
:10173000E04093E727003ACE3EC8F1B7B38767038E
:1017400085462E84BA973DBFFD57C5B7050402CA2A
:10175000814681472546182093051400130707FD8D
:101760006374E606F9F20C200D4617050000130518
:101770006576012511CD970700009387A7751D8D0C
:1017800093070004B397A700424505045D8D2AC85E
:101790000C201946170500001305057413091400E1
:1017A0002304B102F92335C197F7FFFF938787859B
:1017B00095E74247B2471377071009CF91073EC616
:1017C0009257D2973ED22DBDB387670385462E84AC
:1017D000BA9751B79D07E19BA107D5B77800970647
:1017E00000009386C6D726860C084E859700000019
:1017F000E7000000FD572A8AE314F5FCDE2493F786
:101800000704E39207EC1255C1B578009706000073
:101810009386E6D426860C084E85012AE1BF7971AD
:1018200056CA9C49BA8A984522D426D24ECE52CC6A
:1018300006D64AD05AC85EC6AA892E84B284368A91
:1018400063D3E700BA879CC00347340419C38507F4
:101850009CC01C4093F7070281C79C4089079CC02D
:101860000329040013796900631A0900130B94011A
:10187000FD5B5C449840998F634CF9041C4083469F
:10188000340493F70702B336D000A5EB13063404F3
:10189000D2854E85829AFD576303F5041C4011469C
:1018A0009840998B544481446397C700B384E640C1
:1018B00063D3040081441C4418486354F700998F93
:1018C000BE94014969047D5B63982405014509A81C
:1018D00085465A86D2854E85829A631E75017D554E
:1018E000B250225492540259F249624AD24A424BAF
:1018F000B24B456182800509ADBF3307D4001306A2
:101900000003A301C7040347540493871600A2975A
:101910008906A381E7049DBF85462286D2854E8530
:10192000829AE30E65FB050945B7797122D426D268
:101930004AD04ECE06D652CC56CA5AC8B689942D35
:10194000930790063289AA842E8413863504638D0A
:10195000F60263E2D706930780056385F61863ED08
:10196000D700638D062093073004638EF60A930A2E
:1019700024042301D404C9A0930730066385F60A22
:1019800093074006E395F6FE1C40084393F60708CC
:1019900093054500C5C61C410CC363D80700130757
:1019A000D002B307F040A301E40497060000938639
:1019B0002653294765A8930700076381F61663E558
:1019C000D7029307E0066388F6189307F006E390C2
:1019D000F6FA0C401C4313F805081385470063070B
:1019E000080608C39C4385A893075007E383F6FEC7
:1019F000930780076388F61293073007E399F6F69A
:101A00001C43D04181459386470014C383AA070035
:101A10005685852601C53305554148C05C401CC824
:101A2000A301040461A81C43930A2404938647007D
:101A30009C4314C32301F4048547D5B793F60704E8
:101A40001C410CC3B9DAC207C18781BF93F50504F5
:101A500008C3C9D99E231307F0066386E60E9706CE
:101A600000009386E6472947A30104044C400CC4B8
:101A700063C5050008406D9908C099E3B28A89CD15
:101A8000B28AB3F5E702FD1AB6958C212380BA001D
:101A9000B3D5E70263FFE70AA147631EF7001C40C6
:101AA000858B91CB58401C4863C7E7009307000320
:101AB000A38FFAFEFD1A3306564110C84E87CA8618
:101AC0007000A2852685A13B7D5A631D450B7D557F
:101AD000B250225492540259F249624AD24A424BBD
:101AE00045618280A382D504970600009386463F15
:101AF0000C40084313F805081C411105630D08024A
:101B000008C313F7150001C793E505020CC0414750
:101B1000A1FF0C4093F5F5FD0CC0B9B79C4193E7CC
:101B200007029CC193078007A302F40497060000F4
:101B30009386463C75BF13F8050408C3E30308FC0D
:101B4000C207C1837DBF970600009386663921478F
:101B500021BFAE873DB794411C43CC4913F806081A
:101B6000138547006306080008C39C438CC339A053
:101B700008C393F606049C43F5DA8EA323280400D9
:101B8000B28A2DBF14485686CA8526858299E300FD
:101B900045F51C40898B8DE7B2474844E35AF5F27E
:101BA0003E853DB785465686CA8526858299E300DF
:101BB00065F3050A5C443247998FE345FAFEE9BFB5
:101BC000014A930A94017D5BF5B7411122C42A842E
:101BD0002E8523A2018606C6EFF04F84FD576317BA
:101BE000F500938741869C4391C31CC0B2402244B8
:101BF00041018280411122C42E848395E50006C6EE
:101C00007922634905007C48AA977CC8B2402244E7
:101C1000410182805E247D777D17F98F5EA4FDB738
:101C2000DE25011122CC26CA4AC84EC606CE93F73D
:101C30000710AA842E843289B68991C78395E5005E
:101C40008946014609225E247D777D17F98F5EA4BF
:101C50008315E4006244F240CE864A86B249424986
:101C60002685D244056125A8411122C42E8483957E
:101C7000E50006C6C928FD575A24631AF500FD770A
:101C8000FD17F98F5EA4B24022444101828085672E
:101C9000D98F5EA468C8C5BF8395E50005A841112A
:101CA00022C42A842E85B285368623A2018606C6E2
:101CB000EFE03FF3FD576317F500938741869C43A0
:101CC00091C31CC0B240224441018280411122C410
:101CD0002A842E8523A2018606C6C520FD576317D8
:101CE000F500938741869C4391C31CC0B2402244B7
:101CF00041018280411122C42A842E85B28523A20B
:101D0000018606C6C920FD576317F50093874186F3
:101D10009C4391C31CC0B2402244410182804111C6
:101D200022C42A842E8523A2018606C65D20FD5783
:101D30006317F500938741869C4391C31CC0B24052
:101D4000224441018280411122C42A842E85B28519
:101D5000368623A2018606C65920FD576317F50073
:101D6000938741869C4391C31CC0B24022444101E9
:101D7000828093F5F50F2A966314C5000145828091
:101D80001C21E38EB7FE0505C5BF8280828041110C
:101D900022C42A842E85B285368623A2018606C6F1
:101DA000A920FD576317F500938741869C4391C393
:101DB0001CC0B2402244410182809307800523A2C7
:101DC000F1867D5582809307800523A2F1867D559B
:101DD00082809307800523A2F186014582809307C4
:101DE000800523A2F1867D5582809307800523A27A
:101DF000F1867D558280000053797374656D436C64
:101E00006B3A25640D0A00004368697049443A251D
:101E10003038780D0A000000555341525420506F5D
:101E20006C6C696E6720544553540D0073656E6485
:101E30002073756363657373210D000054584275F8
:101E4000666665723A202573200D0A005278427545
:101E5000666665723A202573200D0A0073656E640C
:101E6000206661696C210D00000000000000000088
:101E70000000000000000000000000000000000062
:101E80000000000000000000000000000000000052
:101E90000000000000000000000000000000000042
:101EA0000000000000000000000000000000000032
:101EB0000000000000000000000000000000000022
:101EC0000000000000000000232D302B2000000047
:101ED000686C4C0065666745464700003031323318
:101EE0003435363738394142434445460000000016
:101EF0003031323334353637383961626364656680
:041F000000000000DD
:101F04004275666665722053656E642066726F6DF5
:101F14002055534152543220746F20554152543647
:101F240020627920706F6C6C696E6721000000007C
:101F34000000000000000000010203040607080975
:101F4400000000000102030401020304060708095B
:101F540000000000881E0000A81E0000681E00008B
:101F6400000000000000000000000000000000006D
:101F7400000000000000000000000000000000005D
:101F8400000000000000000000000000000000004D
:101F9400000000000000000000000000000000003D
:101FA400000000000000000000000000000000002D
:101FB400004495080204060818010020500000207F
:081FC4005000002000000000A5
:00000001FF
