:100000006F003027130000001300000013000000F1
:100010001300000013000000130000001300000094
:100020001300000013000000130000001300000084
:08003000130000007300100032
:100038000000000000000000080300000C0300009E
:1000480000000000B80900000000000000000000E7
:10005800BA090000BC090000000000000000000010
:10006800BE09000000000000C009000000000000F8
:10007800C2090000C4090000C6090000C809000040
:10008800CA090000CC090000CE090000D009000010
:10009800D2090000D4090000D6090000D8090000E0
:1000A800DA090000DC090000DE090000E0090000B0
:1000B800E2090000E4090000E6090000E809000080
:1000C800EA090000EC090000EE090000F009000050
:1000D800F2090000F4090000F6090000F809000020
:1000E800FA090000FC090000FE090000000A0000EF
:1000F800020A0000040A0000060A0000080A0000BC
:100108000A0A00000C0A00000E0A0000100A00008B
:10011800120A0000140A0000160A0000180A00005B
:100128001A0A00001C0A00001E0A0000200A00002B
:10013800220A0000240A0000260A0000280A0000FB
:100148002A0A00002C0A00002E0A0000300A0000CB
:10015800320A0000340A0000360A0000380A00009B
:100168003A0A00003C0A00003E0A0000400A00006B
:10017800420A0000440A0000460A0000480A00003B
:100188004A0A00004C0A00004E0A0000500A00000B
:10019800520A0000540A0000560A0000580A0000DB
:1001A8005A0A00005C0A00005E0A0000600A0000AB
:1001B800620A0000640A0000660A0000680A00007B
:1001C8006A0A00006C0A00006E0A0000700A00004B
:1001D8000000000000000000000000000000000017
:1001E8000000000000000000000000000000000007
:0801F8000000000000000000FF
:10020000397101436EC619A0397141536AC866CA73
:1002100062CC5ECE19A0397101535AD056D252D455
:100220004ED64AD826DA22DC06DE330161408282CD
:1002300041114AC026C222C406C68282B24D410183
:10024000024D924C224CB24B4101024B924A224A3F
:10025000B2494101024992442244B24041018280A4
:100260003D432A876373C3029377F700BDEFADE583
:10027000937606FF3D8ABA960CC34CC30CC74CC795
:100280004107E36BD7FE11E28280B306C3408A06C2
:100290009702000096966780A6002307B700A30682
:1002A000B7002306B700A305B7002305B700A304D2
:1002B000B7002304B700A303B7002303B700A302CA
:1002C000B7002302B700A301B7002301B700A300C2
:1002D000B7002300B700828093F5F50F9396850051
:1002E000D58D93960501D58D61B79396270097021A
:1002F000000096968682E78086FA9680C1171D8F49
:100300003E96E374C3F8A5B77300203001A0EFF266
:100310009FF00945EF00B00BEF00E05DEF00703893
:10032000716513050520EF00D03DB707002083A5B8
:100330000720372500001305C516EF00B047EF0072
:10034000E07BAA85372500001305C517EF0090460E
:10035000372500001305C518EF001057B7140140EA
:100360000969392E130400029D2A93840480B72959
:100370000000372A0000B72A0000130BE00713091A
:1003800009F4B12A85452685EF00300401468145F0
:100390000145692C054681454945492C0946814559
:1003A0001305400261240D46814513056003BD2CF1
:1003B0001146814513058004952C1546814513058A
:1003C000A005AD241386491A8D4501451D24130649
:1003D0004A1B99450145312C1386CA1B99451305C3
:1003E000F003012C228605049945130500031374BC
:1003F000F40F152263748B001304000241478D46ED
:100400002286994513057006A52A4A85EF00102C0F
:10041000F9204A85EF00902B85452685EF00A07ACC
:100420008DB7EFF25FDFAA84B5C93715014091455A
:1004300013050580EF00207937150140C1451305EC
:100440000580B7190140EF004078214413890980E5
:10045000930500024A85EF00407793978401E18776
:10046000930500084A8563D30704EF00C0757D1427
:10047000930500024A8586041374F40FEF00A074FC
:1004800093F4F40F71F413850980C145EF00A07354
:10049000914513850980EF00007345BB3715014076
:1004A000914513050580EF00407279B7EF00E071C8
:1004B0007DBFEFF2FFD72A84138505FB1375F50F77
:1004C0008145853713554400814513650501913FEA
:1004D0001375E400814513651500A137A5BBEFF244
:1004E0003FD51304000B1309800B81452285153F6E
:1004F000814501453D378145414525379304000835
:1005000085450145FD14313FE5FC05041374F40FE6
:10051000E31D24FD81B3EFF21FD09317850113046F
:1005200006FEE187AE841374F40F2A8963D70700AF
:100530009384250093F4F40F0149A6854A85953FDD
:100540001316440009641304441C81493294214A5F
:10055000B3073401882385458509E135E39A49FFCE
:100560009385140093F5F50F4A85A137A14408241B
:10057000FD14854593F4F40F6D350504EDF8F1B1E4
:10058000EFF29FC8138AF6FF2A8CAE89B28B135BF9
:1005900017001374FA0F814C01499304F00FA94A14
:1005A0006312940471B9B38757037D171377F70F5C
:1005B000E31B97FEB3D7FB02B3F7570313F6F70F0E
:1005C0006316090263D44C038DE3130600026285AF
:1005D000CE855A9C7D148137850C137CFC0F1374D7
:1005E000F40F7DBF22878547C9B705491306060367
:1005F000F9BFEFF25FC22A842E89B2898144130ABF
:100600008007B3879900902311E281B122852104EC
:10061000CA851374F40F013763768A0009091379C8
:10062000F90F0144850493F4F40FE1BFEFF2BFBE6C
:10063000411132C6AA892E89AD3D324637040020C9
:10064000130404001A0632948144414AB30794000B
:10065000882385458504F133E39A44FF9305190007
:1006600093F5F50F4E85B135C14403450402FD14E1
:10067000854593F4F40F75330504E5F84101F1B6AF
:10068000EFF21FBB01118545114502C602C802CA1F
:1006900002CC231E010002C002C202C47D259307C2
:1006A000600B371401407C80C1473EC48A858D476A
:1006B000130504803EC28129130504809305600B55
:1006C0001923B70704013EC6B70702003EC8B707A3
:1006D000000285073ECA6C009307000837350140C9
:1006E000FC855925854537350140752D894513050C
:1006F0000480D12913054006EF00407D894513058C
:100700000480E1211305800CEF00407C1305048078
:100710008945552981451305E00A21338145014565
:10072000093381454145F539814513050004D53923
:10073000814513051008F53181451305F00CD531BD
:1007400081451305100AF13981451305800CD13913
:1007500081451305600AF13181451305800AD131C5
:1007600081451305F003753981451305300D553961
:10077000814501457D3181451305500D5D31814530
:1007800013050008793981451305900D59398145C4
:100790001305100F793181451305A00D593181459D
:1007A0004945413181451305B00DA53981451305F2
:1007B00000048539814513050002A53181450945AD
:1007C0008D3181451305D008A939814551459139AD
:1007D00081451305400AB13181451305600A913105
:1007E00081451305F00A353981451305F00A15399D
:1007F000FD318145014575390561A9BCB717024036
:100800009843B706FFF841111367170098C3D84300
:1008100037060200758FD8C39843B706F7FEFD165A
:10082000758F98C39843B706FCFFFD16758F98C364
:10083000D843B70681FFFD16758FD8C39843B70616
:1008400000ECFD16758F98C33707FF0098C723A6E5
:10085000070202C402C69843C166558F98C3B716F3
:10086000024005679C42F18F3EC6A24785073EC401
:10087000B24781E7A247E397E7FEB71702409C43E0
:100880001397E7006357070685473EC632478547FB
:10089000631FF704B7170240D843B706C1FFFD1620
:1008A000D8C3D843D8C3D84313670740D8C3D84365
:1008B000758FD8C3D843B7062900558FD8C398433E
:1008C000B7060001558F98C3984393166700E3DD80
:1008D00006FED843B7160240719BD8C3D8431367AE
:1008E0002700D8C32147DC42B18BE39EE7FE4101DC
:1008F000828002C661BF371602405C423707002083
:100900009146B18B130707206385D700A146638802
:10091000D702B7177A00938707201CC3B717024086
:10092000DC43918393F6F700B707002093870718FD
:10093000B69794231C43B3D7D7001CC3828054427C
:100940005042C167C982BD8A7D8E9387260085CAC1
:10095000BD466389D702C1466389D702C545814632
:100960006393B700C1470DE6374602400326068071
:10097000418A15C637167A00130606202DA0814637
:10098000C947D5B78546B547F9BF8146BD47E1BFE1
:100990003716024050429315E600E3DD05FC37169A
:1009A0003D0013060690B387C7021CC3A5DA1C439B
:1009B0008583A5B701A001A001A001A001A001A00D
:1009C00001A001A001A001A001A001A001A001A01F
:1009D00001A001A001A001A001A001A001A001A00F
:1009E00001A001A001A001A001A001A001A001A0FF
:1009F00001A001A001A001A001A001A001A001A0EF
:100A000001A001A001A001A001A001A001A001A0DE
:100A100001A001A001A001A001A001A001A001A0CE
:100A200001A001A001A001A001A001A001A001A0BE
:100A300001A001A001A001A001A001A001A001A0AE
:100A400001A001A001A001A001A001A001A001A09E
:100A500001A001A001A001A001A001A001A001A08E
:100A600001A001A001A001A001A001A001A001A07E
:100A700001A0970100209381E1F817710020130174
:100A80006158172500001305E5DC97F5FF1F9385D6
:100A900065571386818163FAC5008322050023A070
:100AA000550011059105E3EAC5FE13858181938503
:100AB000C1826377B500232005001105E36DB5FE03
:100AC000FD42739002BCAD4273904280B762000059
:100AD0009382820873A0023097F2FFFF938202563E
:100AE00093E2320073905230EFF05FD19702000032
:100AF000938222827390123473002030B7F7FF1F65
:100B000003A5477082809C4513F7070113F8F7008F
:100B100001C7D8413368E8008E2113F7F50F39C3B8
:100B200018418146854E3D4F930F80029302800409
:100B3000214E3396DE00B3F8C50063111603939877
:100B4000260033131F011343F3FF3377E300B31879
:100B5000180133E7E800639FF70550C98506E39A5B
:100B6000C6FD18C11307F00F6375B7045441214641
:100B7000854E3D4F930F800293028004414EB398FF
:100B8000CE0033F715016392E80213172600011710
:100B90003313EF001343F3FFB376D3003317E800AA
:100BA000D98E639DF701232A15010506E319C6FDB9
:100BB00054C18280E39457FA10C94DB7E39757FEAA
:100BC00023281501DDB70CC982804CC9828023AC73
:100BD000A1808280371702405C439146B18B6385C8
:100BE000D700A1466382D706B7177A0093870720FC
:100BF0001CC1371602405C42370700201307071953
:100C00009183BD8BBA9794231C41B3D7D7005CC1A5
:100C10005442A1829D8ABA969422B3D6D70014C5B5
:100C20005442AD829D8A36971823B3D7E7005CC53E
:100C300058423983937637001387418036971823BB
:100C4000B3D7E7021CC982805C435843C166C9839D
:100C5000758FB7F6FF1F83A6C670BD8B89071396E5
:100C6000160163480600C54601466392D702C9478C
:100C700039A88946638FD702BD46638ED702C14625
:100C8000638ED702C54601466393D700C1471DEF67
:100C90003747024003270780418B05C737177A0083
:100CA00013070720B307F7021CC121D61C41858317
:100CB00081B701466DBF0546B547D1BF0146BD4767
:100CC000F9B737173D0013070790E9BFB715024082
:100CD000D8559316F700D85563DF060411833D8B72
:100CE0009306170037177A00130707203357D702E8
:100CF00018C1D455A182BD8A8DE295463307D7022B
:100D0000058318C137170240585714413D8B05071A
:100D100033D7E60218C1184171B785456394B60010
:100D2000E546E9BFBD456396B600D1463387E60286
:100D3000C9BF8906E5BF3D8B9306170037177A00B8
:100D4000130707203357D702F1B799C53717024069
:100D50001C4F5D8D08CF8280B7170240984F134516
:100D6000F5FF798D88CF82801A218D6793870704DC
:100D7000B6217D8F9E21D58FD621D58FF621D58F97
:100D80009625D58FB625D58FD625D58FF625D58F27
:100D9000D98F1EA15A2DFD779387F77FF98F5EAD0E
:100DA0009E291EA982801E2189C593E707041EA1E2
:100DB0008280C207C18393F7F7FBC207C183C5BF17
:100DC000EFF20FC71629F577FD17F58FF621DA2513
:100DD0007971D58F1EA95625FD779387379FF58F9B
:100DE000D6212A842EC6D58F9625D58FB625D58FA8
:100DF0005EA55E29C207C18393F7F7CFD98F5EA99D
:100E00006808C93BB747014093870780B245631A1A
:100E1000F404A25756246547B387E702C206C18689
:100E2000984163D20604060752244206B3D7E7026C
:100E3000130740064186B3D6E702B3F7E7029206EE
:100E4000635506028E0793872703B3D7E70213F78C
:100E50007700B367D700C207C1831EA445616FF056
:100E60006FBF925745BF0A07C1B792079387270301
:100E7000B3D7E702BD8BD58FF9BF91C55E25096752
:100E8000D98F5EA582805A25F977FD17F98FD5BFD6
:100E900093F5F51F4EA182800A216D8D3335A00098
:100EA0008280B707002083A7072037177A0013072F
:100EB0000720B3D7E70293F7F70F238FF1801307CB
:100EC000803EB387E702239EF1808280B7F700E07F
:100ED000D8438146799BD8C303D7C1813306A70283
:100EE00090CBD4CB98431367070198C398431367FB
:100EF000170298C3D843058B75DF9843799B98C335
:100F00008280EFF2EFB22A84116501118545110547
:100F10002D3D930700207C82371501408D473EC44C
:100F20004C00E147130505803EC6F13E22C8374418
:100F30000140B70708000C08130504803ECC02CA24
:100F4000231E0100B53D8545130504803D3705612D
:100F50006FF04FB0EFF22FACB7440140AE89328949
:100F6000014493840480634524014A856FF0EFAD0A
:100F70009305000426850D3765DDB38789008385D9
:100F8000070026850504C205C1811937E9BF13870B
:100F900081801C439386C1823E95636BD500B786E2
:100FA00000209386068063E5A60008C33E85828004
:100FB000FD57EDBF39713EDA2ED232D436D63AD84B
:100FC00042DC46DE9387C18022CC804326CA06CE0F
:100FD000AA8409C41C4C99E32285ED290C445410C1
:100FE0002686228536C6EF007012F2406244D24453
:100FF00021618280011126CA4AC806CE22CC4EC683
:1010000052C4AA842E8901C51C4D91E3E1219C4C58
:10101000804499E326857D29971700009387C77B35
:10102000631BF402C0405E24A18BB1C71C48A1C75A
:10103000FD59294A1C4483450900FD17B1E91CC428
:1010400063DD07062286A94526856120FD576308D2
:10105000F502294535A0971700009387E7796314B7
:10106000F4008044C9B7971700009387E774E31C26
:10107000F4FAC0444DBFA2852685112A55D97D5565
:10108000F2406244D2444249B249224A0561828018
:101090001CC4050963D70700184C63CAE7006388BE
:1010A00045011C401387170018C08CA361B7228626
:1010B00026850520E31035F9D9B71C4013871700A2
:1010C00018C0294798A371B79387C180AA85884320
:1010D00015B7011122CC26CA4AC806CE4EC6AA842C
:1010E0002E89328401C51C4D91E3ED26971700002F
:1010F0009387876E6317F406C0401C4C1CC45E24A3
:10110000A18BC1C31C48B5CF1C4808409379F90F87
:101110001379F90F1D8D5C486346F500A28526857D
:10112000692C25E51C440505FD171CC41C401387CC
:10113000170018C0238037015C486388A7005E242D
:10114000858B81CBA9476316F900A2852685B52436
:101150000DEDF24062444A85D2444249B2490561EC
:10116000828097170000938727696314F4008044F6
:1011700069B79717000093872764E310F4F8C04419
:10118000ADBFA2852685212041D17D59D9B7411116
:101190009387C18026C2844322C44AC006C62A89D6
:1011A0002E8489C49C4C99E326852D269717000030
:1011B00093878762631BF402C0400317C400931730
:1011C0000701C18393F68700ADEA93F6070195EE18
:1011D000A5472320F900136707045AA47D55B240A0
:1011E000224492440249410182809717000093876C
:1011F000A7606314F4008044C9B797170000938771
:10120000A75BE31CF4FAC0444DBF918B9DC34C58BF
:1012100089C9930744046384F5004A853123232A4E
:1012200004025E242322040093F7B7FD5EA41C4849
:101230001CC05E2493E787005EA41C4899EB5E24E3
:101240001307002093F707286385E700A2854A85E6
:10125000A1215E2413F717001DC35C48232404005A
:10126000B307F0401CCC1C480145B5FB8317C400F4
:1012700013F707082DD793E707045EA485B7898B7A
:10128000014791E3584818C4F9BFDE25011122CC6B
:1012900026CA06CE4AC84EC613F78700AA842E84F3
:1012A00079EBD841634DE000B841634AE000014565
:1012B000F2406244D2444249B249056182805854A6
:1012C0007DD703A904009396370123A0040063DBB4
:1012D000060670485E24918B99C75C401D8E5C5851
:1012E00099C33C401D8E5C540C50814626858297E4
:1012F000FD575A24631DF5009440F54763E8D7066F
:10130000B70740208507B3D7D700858BA5C31C48F6
:10131000232204001CC09317370163D80700FD5730
:101320006314F5009C4091E368C84C5823A0240145
:10133000BDDD930744046384F5002685F526232A42
:101340000402B5B70C500146854626850297FD5725
:101350002A86E311F5F89C40B5DF75476385E70001
:1013600059476393E70423A0240191B71367070447
:101370005AA47D5535BF83A90501E38A09F203A963
:1013800005008D8B23A0350133093941014791E3D5
:10139000D84918C4E35D20F11C540C50CA864E860F
:1013A000268582976347A0005E2493E707045EA426
:1013B000C9B7AA993309A940F1BF9C49B9CF011116
:1013C00022CC06CE2A8411C51C4D81E72EC61922D7
:1013D000B2459717000093872740639BF5004C4068
:1013E0008397C50095C722856244F240056171BDAF
:1013F00097170000938747406394F5000C44CDB7DE
:10140000971700009387473BE39CF5FC4C44C9BF0A
:10141000F2406244014505618280014582804111AC
:1014200022C406C62A844EA572A5232005002322C5
:101430000500232405002322050623280500232A6E
:101440000500232C0500214681451305C505EFE065
:101450003FE197170000938767B15CD097170000B2
:10146000938787B31CD497170000938767B75CD422
:10147000971700009387C7B900D01CD8B240224408
:101480004101828097050000938565F3A9A241116F
:1014900026C2130680069384F5FFB384C4024AC0B3
:1014A0002E8922C406C6938544071D262A8401CDB1
:1014B0002320050023222501310508C41386840654
:1014C0008145EFE0FFD92285B2402244924402498F
:1014D000410182801C4DADE3411106C622C497072D
:1014E0000000938767FA1CD5938701819C432324CE
:1014F000050423260504232805046314F500854705
:101500001CCD2A841D2848C02285052808C42285B0
:101510002D2048C4484001469145113708440546EE
:10152000A545F53D48440946C945D53D85471CCCF0
:10153000B24022444101828082804111938701811F
:1015400026C284434AC006C69C4C22C42A8999E319
:1015500026854937938484048044DC40FD1763D694
:1015600007009C40B9CF8440C5BF0317C40039E7CA
:10157000C1778507232204062320040023220400C8
:10158000232404005CC423280400232A0400232C01
:101590000400214681451305C405EFE07FCC232AD2
:1015A0000402232C04022324040423260404228599
:1015B000B2402244924402494101828013048406CD
:1015C00071BF91454A85E13588C051FDB14723205F
:1015D000F9000144E9BF797122D44AD052CC56CAED
:1015E0005AC85EC606D626D24ECE2A8AAE8A1304C2
:1015F00085040149054BFD5B09ECB25022544A8534
:1016000092540259F249624AD24A424BB24B456166
:101610008280044483294400FD1963D409000040FA
:10162000E1BFDE24637BFB008397E40063877701DF
:10163000A6855285829A3369A90093848406E9BFFE
:101640001971A6DAAE848395E500A2DC86DE3284C9
:1016500063DB0500DE2423A0060093F7070885E777
:10166000930700401DA0300836C6EF00F01FB246B9
:10167000E34205FE7247BD67F98F7977BA9793B752
:1016800017009CC2F1BF930700041CC0F6506654BB
:10169000D654014509618280DE25011122CC06CE97
:1016A00026CA4AC8898B2E8489CF930774041CC02C
:1016B0001CC885475CC8F2406244D2444249056177
:1016C000828074003000AA84A53FA2452A8926851D
:1016D000012219E98317C40013F7072069FFF19B62
:1016E00093E727005EA4D1B7970700009387C7D977
:1016F0009CD45E2408C008C893E707085EA4A247EC
:101700005CC8B24781CF8315E4002685EF007018CE
:1017100011C55E24F19B93E717005EA45E24336934
:10172000F9002316240141BFDDC183A7C5FF411184
:1017300022C406C626C21384C5FF63D307003E94A5
:10174000AA84EF00D01B938701829C4381EF232260
:10175000040023A081822244B240268592444101A4
:101760006F00101A637EF40014403307D4006396B0
:10177000E7009843DC43369718C05CC0D9BFBA87EE
:10178000D84319C3E37DE4FE94433386D700631F37
:1017900086001040B29694C33386D700E31DC7FA83
:1017A00010435843B29694C3D8C375B76375C40049
:1017B000B1479CC04DB71040B306C4006316D700B4
:1017C00014435843B29614C058C0C0C369B782804E
:1017D000011126CA93843500F19806CE22CC4AC85E
:1017E0004EC6A104B14763F3F404B14463E2B40408
:1017F0002A89EF00D0109387018298433A8439E018
:10180000938741829C4391E781454A850D2F23A20E
:10181000A182A6854A852527FD5963193507B14759
:101820002320F9004A85EF00B00D29A0E3D004FC85
:10183000B1471CC10145F2406244D2444249B24919
:10184000056182801C40858F63CF0702AD4663F639
:10185000F6001CC03E9404C031A05C4063138702B4
:1018600023A0F1824A85EF00B0091305B400930765
:10187000440061993307F5405DDF3A94898F1CC0BD
:101880005DBF5CC3C5B72287404095BF13043500D8
:101890007198E30285FCB305A4404A854D25E31CFD
:1018A00035FBB5BF1C46FD171CC663DA0700184E92
:1018B00063C5E700A9476394F5006FF09F811C4260
:1018C0002E851387170018C28CA38280011122CCA9
:1018D00026CA4AC84EC652C406CE2A89AE89328468
:1018E000B304D6007D5A63149400014501A80C206E
:1018F0004E864A85453F0504E31745FFF2406244A2
:10190000D2444249B249224A05618280357122CDD2
:1019100026CB4AC94EC706CF52C556C35AC1DEDED2
:10192000E2DCE6DAAA89AE843289368409C51C4D28
:1019300099E3EFF03FBA971700009387E7E96397C1
:10194000F40C83A44900DE24A18BFDC39C48EDC3A5
:1019500093070002A304F1029307000302D22305B8
:10196000F10222C6930B5002971A0000938ACAEA2A
:10197000054C294B4A841C2099C3639E770DB30CF8
:101980002441638D0C00E6864A86A6854E853D3F40
:10199000FD57630FF51C9256E69636D21C206389DC
:1019A000071CFD571309140002C802CE3ECA02CC20
:1019B000A309010482D483450900154656852527CD
:1019C00013041900C24751E913F7070109C71307A8
:1019D0000002A309E10413F7870009C71307B00247
:1019E000A309E104834609001307A002638FE606FA
:1019F000F2474A84814625461820930514001307B0
:101A000007FD6377E60AB5CA3ECE85A897170000A2
:101A1000938787DE6395F40083A489002DB7971719
:101A20000000938767D9E390F4F283A4C90021BF33
:101A3000A6854E85EFF0AFF501DD7D55FA406A448D
:101A4000DA444A49BA492A4A9A4A0A4BF65B665C22
:101A5000D65C0D618280050439BF330555413315CD
:101A6000AC00C98F3EC82289B9B7324793064700F8
:101A7000184336C6634707023ACE18209307E002A0
:101A8000631DF70418309307A002631BF702B247E7
:101A90000904138747009C433AC663C107023ECA44
:101AA0002DA83307E04093E727003ACE3EC8F1B7B0
:101AB000B387670385462E84BA973DBFFD57C5B7E8
:101AC000050402CA81468147254618209305140063
:101AD000130707FD6374E606F9F20C200D4617158F
:101AE00000001305E5D3012511CD9717000093875A
:101AF00027D31D8D93070004B397A7004245050423
:101B00005D8D2AC80C20194617150000130585D1D4
:101B1000130914002304B102F92335C197E7FFFF2D
:101B20009387474E95E74247B2471377071009CF8F
:101B300091073EC69257D2973ED22DBDB387670319
:101B400085462E84BA9751B79D07E19BA107D5B76B
:101B50007800970600009386A6D726860C084E8547
:101B600097000000E7000000FD572A8AE314F5FC07
:101B7000DE2493F70704E39207EC1255C1B5780011
:101B8000970600009386C6D426860C084E85012A47
:101B9000E1BF797156CA9C49BA8A984522D426D2A7
:101BA0004ECE52CC06D64AD05AC85EC6AA892E84DA
:101BB000B284368A63D3E700BA879CC003473404F3
:101BC00019C385079CC01C4093F7070281C79C403E
:101BD00089079CC00329040013796900631A09006E
:101BE000130B9401FD5B5C449840998F634CF9049E
:101BF0001C408346340493F70702B336D000A5EBAC
:101C000013063404D2854E85829AFD576303F5048A
:101C10001C4011469840998B544481446397C700F7
:101C2000B384E64063D3040081441C4418486354E1
:101C3000F700998FBE94014969047D5B6398240580
:101C4000014509A885465A86D2854E85829A631E2B
:101C500075017D55B250225492540259F249624A9C
:101C6000D24A424BB24B456182800509ADBF330772
:101C7000D40013060003A301C70403475404938749
:101C80001600A2978906A381E7049DBF8546228698
:101C9000D2854E85829AE30E65FB050945B77971B9
:101CA00022D426D24AD04ECE06D652CC56CA5AC8D4
:101CB000B689942D930790063289AA842E841386C0
:101CC0003504638DF60263E2D706930780056385CA
:101CD000F61863EDD700638D062093073004638EFA
:101CE000F60A930A24042301D404C9A093073006FA
:101CF0006385F60A93074006E395F6FE1C40084309
:101D000093F6070893054500C5C61C410CC363D86C
:101D100007001307D002B307F040A301E4049716AD
:101D200000009386A6B0294765A893070007638142
:101D3000F61663E5D7029307E0066388F618930763
:101D4000F006E390F6FA0C401C4313F805081385DF
:101D500047006307080608C39C4385A893075007FC
:101D6000E383F6FE930780076388F6129307300734
:101D7000E399F6F61C43D04181459386470014C38E
:101D800083AA07005685852601C53305554148C0FD
:101D90005C401CC8A301040461A81C43930A2404EA
:101DA000938647009C4314C32301F4048547D5B7A9
:101DB00093F607041C410CC3B9DAC207C18781BF7F
:101DC00093F5050408C3C9D99E231307F00663865B
:101DD000E60E97160000938666A52947A301040422
:101DE0004C400CC463C5050008406D9908C099E3D8
:101DF000B28A89CDB28AB3F5E702FD1AB6958C2175
:101E00002380BA00B3D5E70263FFE70AA147631E48
:101E1000F7001C40858B91CB58401C4863C7E700F6
:101E200093070003A38FFAFEFD1A3306564110C82C
:101E30004E87CA867000A2852685A13B7D5A631D08
:101E4000450B7D55B250225492540259F249624AD0
:101E5000D24A424B45618280A382D5049716000086
:101E60009386C69C0C40084313F805081C411105D5
:101E7000630D080208C313F7150001C793E50502B7
:101E80000CC04147A1FF0C4093F5F5FD0CC0B9B75C
:101E90009C4193E707029CC193078007A302F404C7
:101EA000971600009386C69975BF13F8050408C3FA
:101EB000E30308FCC207C1837DBF97160000938629
:101EC000E696214721BFAE873DB794411C43CC49DC
:101ED00013F80608138547006306080008C39C43EF
:101EE0008CC339A008C393F606049C43F5DA8EA38D
:101EF00023280400B28A2DBF14485686CA85268539
:101F00008299E30045F51C40898B8DE7B247484430
:101F1000E35AF5F23E853DB785465686CA85268545
:101F20008299E30065F3050A5C443247998FE345E3
:101F3000FAFEE9BF014A930A94017D5BF5B74111AE
:101F400022C42A842E8523A4018206C6EFF02F84A2
:101F5000FD576317F500938781829C4391C31CC092
:101F6000B240224441018280411122C42E848395D3
:101F7000E50006C67922634905007C48AA977CC81B
:101F8000B2402244410182805E247D777D17F98F23
:101F90005EA4FDB7DE25011122CC26CA4AC84EC672
:101FA00006CE93F70710AA842E843289B68991C78A
:101FB0008395E5008946014609225E247D777D17D9
:101FC000F98F5EA48315E4006244F240CE864A860F
:101FD000B24942492685D244056125A8411122C44F
:101FE0002E848395E50006C6C928FD575A24631A36
:101FF000F500FD77FD17F98F5EA4B2402244410140
:1020000082808567D98F5EA468C8C5BF8395E500C7
:1020100005A8411122C42A842E85B285368623A4C0
:10202000018206C6EFE01FF3FD576317F5009387A3
:1020300081829C4391C31CC0B240224441018280F2
:10204000411122C42A842E8523A4018206C6C520FC
:10205000FD576317F500938781829C4391C31CC091
:10206000B240224441018280411122C42A842E853B
:10207000B28523A4018206C6C920FD576317F50067
:10208000938781829C4391C31CC0B240224441018A
:102090008280411122C42A842E8523A4018206C68F
:1020A0005D20FD576317F500938781829C4391C3A0
:1020B0001CC0B240224441018280411122C42A84C2
:1020C0002E85B285368623A4018206C65920FD5787
:1020D0006317F500938781829C4391C31CC0B24073
:1020E00022444101828093F5F50F2A966314C500BE
:1020F000014582801C21E38EB7FE0505C5BF8280A5
:102100008280411122C42A842E85B285368623A47A
:10211000018206C6A920FD576317F50093878182C7
:102120009C4391C31CC0B24022444101828093076A
:10213000800523A4F1827D5582809307800523A426
:10214000F1827D5582809307800523A4F1820145A9
:1021500082809307800523A4F1827D5582809307B6
:10216000800523A4F1827D55828000005379737429
:10217000656D436C6B3A25640D0A00004368697015
:1021800049443A253038780D0A00000054686973D4
:10219000206973204F4C4544206578616D706C65F3
:1021A0000D00000043535920697320612070696756
:1021B0000000000041534349493A0000434F444561
:1021C0003A000000000000000000000000000000D5
:1021D00000000000000000F80000000000000033D4
:1021E0003000000000100C06100C0600000000007B
:1021F0000000000040C07840C0784000043F040464
:102200003F040400007088FC08300000001820FF24
:10221000211E0000F008F000E018000000211C035F
:102220001E211E0000F00888700000001E212324DB
:102230001927211010160E000000000000000000F9
:1022400000000000000000E0180402000000000789
:102250001820400000020418E00000000040201890
:1022600007000000404080F0804040000202010F63
:1022700001020200000000F0000000000101011F47
:1022800001010100000000000000000080B07000AB
:10229000000000000000000000000000000101013B
:1022A00001010101000000000000000000303000CA
:1022B00000000000000000008060180400601806A4
:1022C0000100000000E010080810E000000F1020DE
:1022D00020100F00001010F8000000000020203F28
:1022E00020200000007008080888700000302824B2
:1022F0002221300000300888884830000018202053
:1023000020110E000000C02010F800000007042477
:10231000243F240000F808888808080000192120BC
:1023200020110E0000E0108888180000000F112016
:1023300020110E0000380808C83808000000003FCF
:10234000000000000070880808887000001C22212E
:1023500021221C0000E010080810E00000003122DB
:1023600022110F00000000C0C0000000000000307B
:1023700030000000000000800000000000008060CD
:10238000000000000000804020100800000102044E
:102390000810200040404040404040000404040435
:1023A00004040400000810204080000000201008F1
:1023B00004020100007048080808F0000000003026
:1023C00036010000C030C828E810E00007182724B4
:1023D00023140B000000C038E0000000203C230262
:1023E0000227382008F8888888700000203F2020C5
:1023F00020110E00C03008080808380007182020F7
:102400002010080008F808080810E000203F2020ED
:1024100020100F0008F88888E8081000203F2020CE
:102420002320180008F88888E8081000203F2000C2
:1024300003000000C03008080838000007182020FA
:10244000221E020008F808000008F808203F2101B9
:1024500001213F20000808F8080800000020203F64
:102460002020000000000808F8080800C0808080D4
:102470007F00000008F888C028180800203F2001CD
:102480002638200008F8080000000000203F202027
:102490002020300008F8F800F8F80800203F003F3E
:1024A000003F200008F830C00008F808203F200056
:1024B00007183F00E01008080810E0000F10202067
:1024C00020100F0008F808080808F000203F21013C
:1024D00001010000E01008080810E0000F18242493
:1024E00038504F0008F8888888887000203F200006
:1024F000030C3020007088080808380000382021BC
:1025000021221C00180808F8080818000000203FC5
:102510002000000008F808000008F808001F20202C
:1025200020201F000878880000C8380800000738FD
:102530000E010000F80800F80008F800033C07004E
:10254000073C0300081868808068180820302C03B6
:10255000032C30200838C800C83808000000203F8D
:102560002000000010080808C8380800203826217C
:1025700020201800000000FE020202000000007F80
:1025800040404000000C30C000000000000000018E
:102590000638C00000020202FE0000000040404079
:1025A0007F0000000000040202020400000000009E
:1025B000000000000000000000000000808080801B
:1025C0008080808000020204000000000000000003
:1025D000000000000000808080800000001924229C
:1025E00022223F2008F8008080000000003F1120D8
:1025F00020110E000000008080800000000E1120DD
:1026000020201100000000808088F800000E1120BA
:1026100020103F200000808080800000001F2222C8
:1026200022221300008080F0888888180020203F34
:10263000202000000000808080808000006B949447
:102640009493600008F8008080800000203F210003
:1026500000203F2000809898000000000020203FCC
:1026600020200000000000809898000000C08080BA
:10267000807F000008F8000080808000203F240256
:102680002D302000000808F8000000000020203F46
:10269000202000008080808080808000203F2000FB
:1026A0003F20003F8080008080800000203F21008C
:1026B00000203F200000808080800000001F20203C
:1026C00020201F00808000808000000080FFA1206B
:1026D00020110E000000008080808000000E11207C
:1026E00020A0FF80808080008080800020203F210B
:1026F00020000100000080808080800000332424BE
:1027000024241900008080E0808000000000001F69
:10271000202000008080000000808000001F20201A
:1027200020103F20808080000080808000010E30DB
:102730000806010080800080008080800F300C033C
:102740000C300F0000808000808080000020312E3F
:102750000E312000808080000080808080818E701B
:102760001806010000808080808080000021302CCD
:102770002221300000000000807C020200000000E6
:10278000003F404000000000FF000000000000008B
:10279000FF0000000002027C800000000040403F7B
:1027A0000000000000060101020204040000000015
:1027B0000000000000000000000000000000000019
:1027C0000000000000000000000000000000000009
:1027D00000000000000000000000000000000000F9
:1027E00000000000000000000000000000000000E9
:1027F00000000000000000000000000000000000D9
:1028000000000000000000000000000000000000C8
:1028100000000000232D302B20000000686C4C00CD
:102820006566674546470000303132333435363708
:1028300038394142434445460000000030313233CC
:1028400034353637383961626364656600000000EC
:102850000404F45454FF545454FF5454F404040036
:102860000000000000000000000000000000000068
:10287000000001FD55555555555555FD0100000009
:102880000000000000000000000000000000000048
:102890000060222AF22222263A2121F12D21600015
:1028A0000000000000000000000000000000000028
:1028B00000844225190907001D1111FF1111100094
:1028C0000000000000000000000000000000000008
:1028D0001060028C00FF445840FF504C40FF000045
:1028E00000000000000000000000000000000000E8
:1028F00004047E81601F100C03FF020C00FF000027
:1029000000000000000000000000000000000000C7
:102910000000007F494949494949497F00000000BA
:1029200000000000000000000000000000000000A7
:102930008141211D214181FF898989898981810006
:102940000000000000000000000000000000000087
:10295000221408F402202424A47F243428262000F2
:102960000000000000000000000000000000000067
:102970004482413F000402FF49494949FF000000E9
:102980000000000000000000000000000000000047
:10299000000000FE00000000000000000000000039
:1029A0000000000000000000000000000000000027
:1029B00000000033000000000000000000000000E4
:1029C0000000000000000000000000000000000007
:1029D00000000000000000000102030406070809CF
:1029E00000000000010203040102030406070809B5
:1029F00000000000D4270000F4270000B4270000E6
:102A000000000000000000000000000000000000C6
:102A100000000000000000000000000000000000B6
:102A200000000000000000000000000000000000A6
:102A30000000000000000000000000000000000096
:102A40000000000000000000000000000000000086
:102A500000D8B805020406082C020020A0010020BE
:082A6000A001002000000000AD
:00000001FF
